:020000040800F2
:1000000000000220B90F00086D0F00086F0F0008F4
:10001000710F0008730F0008750F00080000000042
:10002000000000000000000000000000770F000842
:10003000790F0008000000007B0F00087D0F00080A
:10004000091000080910000809100008091000082C
:10005000091000080910000809100008091000081C
:10006000091000080910000809100008091000080C
:1000700009100008091000080910000809100008FC
:10008000091000080910000809100008000000000D
:10009000000000000000000000000000091000083F
:1000A000850F000809100008091000080910000851
:1000B00009100008950F0008091000080910000831
:1000C00009100008091000080910000809100008AC
:1000D00009100008A50F0008091000080000000022
:1000E00009100008091000080910000800000000AD
:1000F00000000000000000000000000009100008DF
:10010000000000000910000809100008091000088C
:1001100000000000000000000000000000000000DF
:10012000091000080910000809100008091000084B
:10013000091000080000000000000000000000009E
:10014000000000000000000000000000091000088E
:10015000091000080910000809100008091000081B
:10016000091000080910000800000000000000004D
:10017000000000000000000000000000000000007F
:10018000000000000910000800000000000000004E
:08019000091000080910000825
:100198000348044B834202D0034B03B1184770470E
:1001A8003C0400203C0400200000000005480649EB
:1001B8000B1AD90F01EBA301491002D0034B03B16D
:1001C800184770473C0400203C0400200000000051
:1001D80010B5064C237843B9FFF7DAFF044B13B187
:1001E8000448AFF300800123237010BD3C040020B5
:1001F80000000000082C000808B5044B1BB1044996
:100208000448AFF30080BDE80840CFE700000000D5
:1002180040040020082C000853B94AB9002908BF37
:1002280000281CBF4FF0FF314FF0FF3000F06CB9D1
:10023800ADF1080C6DE904CE00F006F8DDF804E035
:10024800DDE9022304B070472DE9F047089E0D460A
:1002580004468E46002B40F082808A42174646D9D3
:10026800B2FA82F24AB1C2F1200105FA02F320FA89
:1002780001F1974041EA030E94404FEA1748230CD6
:10028800BEFBF8FCB9B208FB1CEE43EA0E430CFBBC
:1002980001F098420AD9FB180CF1FF3580F016815D
:1002A800984240F21381ACF1020C3B441B1AA4B2F1
:1002B800B3FBF8F008FB103344EA034400FB01F1F8
:1002C800A14209D93C1900F1FF3380F00181A14214
:1002D80040F2FE8002383C44641A40EA0C40002197
:1002E8001EB1D4400023C6E90043BDE8F08702B937
:1002F800FFDEB2FA82F2002A4FD1CB1B4FEA174E2B
:100308001FFA87F80121B3FBFEFC250C0EFB1C33FA
:1003180045EA034508FB0CF3AB4207D97D190CF1FC
:10032800FF3002D2AB4200F2E7808446ED1AA3B256
:10033800B5FBFEF00EFB105543EA054408FB00F838
:10034800A04507D93C1900F1FF3302D2A04500F2BD
:10035800D7801846A4EB080440EA0C40C0E78B425B
:1003680008D9002E00F0AF800021C6E90005084634
:10037800BDE8F087B3FA83F100294BD1AB4202D331
:10038800824200F2B780841A65EB030301209E467F
:10039800002EAAD0C6E9004EA7E7C2F1200C01FA48
:1003A80002F3974020FA0CF04FEA174E21FA0CFCA2
:1003B8001843BCFBFEF1050C0EFB11CC1FFA87F8A5
:1003C80045EA0C4501FB08F3AB4204FA02F409D9EB
:1003D8007D1901F1FF3C80F08B80AB4240F28880B0
:1003E80002393D44EB1A85B2B3FBFEF00EFB103325
:1003F80045EA034500FB08F3AB4207D97D1900F134
:10040800FF3C71D2AB426FD902383D44EB1A40EA47
:10041800014178E7C1F1200C8B4022FA0CF71F4309
:1004280020FA0CF405FA01F34FEA174E25FA0CF5F9
:100438001C43230CB5FBFEF91FFA87F80EFB195570
:1004480043EA054509FB08FAAA4502FA01F200FA4F
:1004580001F308D97D1909F1FF3047D2AA4545D9DA
:10046800A9F102093D44A5EB0A05A4B2B5FBFEF0CB
:100478000EFB105544EA054400FB08F8A04507D9CF
:100488003C1900F1FF352DD2A0452BD902383C4448
:1004980040EA0940A4EB0804A0FB02894C45C64683
:1004A8004D4619D316D05EB1B3EB0E0264EB0504CA
:1004B80004FA0CFCCA404CEA0202CC40C6E900240B
:1004C8000021BDE8F087314630460EE7AC46EDE640
:1004D800184601E74345E6D2B8EB020E69EB07057B
:1004E8000138E0E72846D3E760468FE78146BAE758
:1004F800614677E708464BE7ACF1020C3D4415E747
:1005080002383C4426E700BF704700BF002301467D
:100518001A46184600F08EB838B50A4C0A4D641BC6
:10052800A4100AD004F18043013B05EB8305013C8C
:1005380055F804399847002CF9D1BDE8384002F045
:1005480065BB00BF502C00084C2C000870B50D4E40
:100558000D4D761BB61006D00024013455F8043B27
:100568009847A642F9D1094E094D761B02F048FB7F
:10057800B61006D00024013455F8043B9847A6422B
:10058800F9D170BD442C0008442C00084C2C0008FC
:10059800442C0008F0B4860746D0541E002A3CD0EC
:1005A800CAB2034602E014F1FF3436D303F8012B34
:1005B8009D07F8D1032C29D9CDB245EA05250F2C82
:1005C80045EA054533D9A4F11006360903F1200799
:1005D80007EB061703F1100242E9045542E90255F8
:1005E8001032BA42F8D1721C14F00C0F03EB02124D
:1005F80004F00F0613D0331F23F00303043313440E
:1006080042F8045B9342FBD106F003042CB1C9B253
:100618001C4403F8011B9C42FBD1F0BC70473446D4
:100628001346002CF3D1F8E714460346C2E71A46EE
:100638002646E0E7F0B4184C2568D5F8484114B3CD
:1006480065681F2D24DC38B9AB1C0135656044F89A
:1006580023100020F0BC704704EB85060127C6F87C
:10066800882007FA05F2D4F88871022847EA0207B9
:10067800C4F88871C6F80831E6D1D4F88C311A4329
:10068800C4F88C21E0E705F5A674C5F84841D7E71A
:100698004FF0FF30DEE700BF202C00082DE9F041C5
:1006A8008AB0002405940694079408940994019448
:1006B800384B1A6B42F004021A631A6B02F00402F8
:1006C8000192019A02941A6B42F080021A631A6B23
:1006D80002F080020292029A03941A6B42F001021D
:1006E8001A631A6B02F001020392039A04941A6BBC
:1006F80042F002021A631B6B03F002030493049B8B
:10070800DFF89C8022464FF40051404600F080FEFE
:10071800214D224641F20401284600F079FE1F4E81
:1007280022464FF48071304600F072FE4FF40053B9
:100738000593012706970794089405A9404600F0F9
:100748008FFD41F20403059306970794089405A9C1
:10075800284600F085FD4FF48073059306970794AB
:10076800089405A9304600F07BFD4FF4004305933B
:100778000694079405A9304600F072FD30230593CE
:100788000694079405A9284600F06AFD0AB0BDE85A
:10079800F08100BF0038024000040240000002401F
:1007A800000802407047000038B5094C58236370B0
:1007B800A370084D4FF0FF3304222146284601F06C
:1007C800A8FF04222146284602F0F3F938BD00BFED
:1007D80058040020E005002072B6FEE708B50A4874
:1007E8000A4B03604FF46123436000238360C360B6
:1007F80003610C2242618361C36101F05BFF00B9B0
:1008080008BDFFF7E9FF00BFE00500200010014028
:1008180008B50A480A4B03600A4B4360002383600B
:10082800C3604FF48042026143618361C361036224
:1008380000F0F4FD00B908BDFFF7CEFF5C0400200E
:1008480000580040A086010008B50D480D4B036014
:100858004FF48273436000238360C3600361436184
:100868004FF400728261C3610362436283620A23A8
:10087800C36201F0D3F900B908BDFFF7ADFF00BFAF
:10088800B00400200038004000B58FB000230A9360
:100898000B930C930D93089309930193029303937D
:1008A80004930593069307932B482C4A02604360F0
:1008B800836042F20F72C2600361836101F00CFC35
:1008C800002839D14FF480530A930AA9224801F02D
:1008D80006FD002832D1204801F02AFC00282FD13B
:1008E80000230893099308A91B4801F077FD48BB2A
:1008F80060230193002202920392059201A91648EF
:1009080001F074FC00BB04220DEB0201124801F057
:100918006DFCD8B9082201A90F4801F067FCB8B9E5
:100928000C2201A90C4801F061FC98B90A4800F0B2
:100938004BFA0FB05DF804FBFFF74EFFFFF74CFFD3
:10094800FFF74AFFFFF748FFFFF746FFFFF744FFAF
:10095800FFF742FFFFF740FF0805002000040040B2
:1009680000B58FB000230A930B930C930D93089353
:1009780009930193029303930493059306930793B2
:100988002B482C4A02604360836042F20F72C260B7
:100998000361836101F0A0FB002839D14FF4805333
:1009A8000A930AA9224801F09AFC002832D120486B
:1009B80001F0BEFB00282FD100230893099308A952
:1009C8001B4801F00BFD48BB6023019300220292F3
:1009D8000392059201A9164801F008FC00BB042205
:1009E8000DEB0201124801F001FCD8B9082201A957
:1009F8000F4801F0FBFBB8B90C2201A90C4801F023
:100A0800F5FB98B90A4800F0DFF90FB05DF804FB70
:100A1800FFF7E2FEFFF7E0FEFFF7DEFEFFF7DCFE82
:100A2800FFF7DAFEFFF7D8FEFFF7D6FEFFF7D4FE92
:100A3800500500200008004000B585B00023009351
:100A48000193029303930E480E4A026042F20F721A
:100A580042608360C2600361836101F03DFB50B96D
:100A68004FF4805300936946054801F038FC20B9DB
:100A780005B05DF804FBFFF7AFFEFFF7ADFE00BF62
:100A8800980500200040014008B50A480A4B036059
:100A98004FF4E133436000238360C36003610C2299
:100AA80042618361C36101F005FE00B908BDFFF72B
:100AB80093FE00BF240600200014014000B595B045
:100AC8003022002108A8FFF765FD00230393049353
:100AD80005930693079301931F4A116C41F08051C7
:100AE8001164126C02F080520192019A02931B4B1E
:100AF8001A6842F440421A601B6803F440430293A8
:100B0800029B012308934FF48033099302230E9329
:100B18004FF480020F920C221092602211921293CD
:100B28000423139308A800F057FD88B90F230393F3
:100B380002230493002305934FF4805206920793EF
:100B4800032103A800F094FF20B915B05DF804FB59
:100B5800FFF742FEFFF740FE0038024000700040F9
:100B680038B500F075FAFFF7A9FFFFF797FDFFF713
:100B780035FEFFF74DFEFFF767FEFFF785FEFFF72F
:100B8800EFFEFFF759FFFFF77FFF154801F058F90F
:100B980004221449144802F00CF8002413E0134D01
:100BA80001224FF40051284600F032FC642000F086
:100BB8007BFA00224FF40051284600F029FC6420FB
:100BC80000F072FA0134092CE9DD064B41221A7053
:100BD80042225A7043229A704422DA70FEE700BF1C
:100BE8009805002058040020E00500200008024075
:100BF80082B0002100910B4B5A6C42F480425A6437
:100C08005A6C02F480420092009A01911A6C42F0E8
:100C180080521A641B6C03F080530193019B02B04D
:100C2800704700BF003802402DE9F04188B000232A
:100C38000393049305930693079302681C4B9A4207
:100C480002D008B0BDE8F08100250195194C236B4E
:100C580043F002032363236B03F002030193019B18
:100C68004FF4806303934FF01208CDF81080059578
:100C780003270697042307930F4E03A9304600F075
:100C8800EFFA08230393CDF81080059506970923FA
:100C9800079303A9304600F0E3FA0295236C43F466
:100CA80080032364236C03F480030293029BC8E748
:100CB80000580040003802400004024000B589B0E6
:100CC8000023039304930593069307930268164B36
:100CD8009A4202D009B05DF804FB0022019203F5A4
:100CE8000033196C41F480411964196C01F4804196
:100CF800019101990292196B41F0020119631B6B72
:100D080003F002030293029B4FF460430393022310
:100D180004930592032306930523079303A9034825
:100D280000F09EFAD6E700BF0038004000040240F9
:100D380000B585B00368204A934208D01F4A934201
:100D480019D01F4A934223D005B05DF804FB002157
:100D580001911C4B1A6C42F002021A641B6C03F0DE
:100D680002030193019B0A461D2000F0C3F91D20D0
:100D780000F0F4F9E8E700230293124B1A6C42F0F2
:100D880004021A641B6C03F004030293029BDBE762
:100D9800002103910B4B5A6C42F480325A645B6C0D
:100DA80003F480330393039B0A46182000F0A2F94A
:100DB800182000F0D3F9C7E70004004000080040FD
:100DC800004001400038024030B589B00023039349
:100DD80004930593069307930368274A934204D024
:100DE800264A93422DD009B030BD00240094244BEC
:100DF8001A6B42F001021A631A6B02F001020092A8
:100E0800009A01941A6B42F002021A631B6B03F0FA
:100E180002030193019BC0230393022504950594C3
:100E28000694079503A9174800F01AFA03230393B9
:100E3800049505940694079503A9134800F010FA41
:100E4800D1E70023029302F50C32116B41F0020145
:100E58001163126B02F002020292029A4FF470724E
:100E680003920222049205930693079203A9064867
:100E780000F0F6F9B7E700BF0004004000080040A2
:100E880000380240000002400004024010B58AB059
:100E980000230593069307930893099303682D4A43
:100EA800934204D02C4A93422ED00AB010BD00249D
:100EB80001942A4B5A6C42F010025A645A6C02F0A0
:100EC80010020192019A02941A6B42F001021A630D
:100ED8001B6B03F001030293029B4FF4C06305935D
:100EE800022306930794032308930723099305A96C
:100EF8001B4800F0B5F922462146252000F0FAF8F3
:100F0800252000F02BF9D0E700220392134B596CEF
:100F180041F020015964596C01F0200103910399B3
:100F28000492196B41F0010119631B6B03F0010373
:100F38000493049B4FF4C05305930223069307922E
:100F4800032308930823099305A9054800F088F9A5
:100F5800ABE700BF00100140001401400038024018
:100F680000000240FEE7FEE7FEE7FEE7FEE7704707
:100F78007047704708B500F085F808BD08B5024805
:100F880000F09FFF08BD00BF9805002008B5024883
:100F980000F097FF08BD00BF0805002008B502480B
:100FA80001F0ACFC08BD00BFE00500207047000060
:100FB800DFF834D00D480E490E4A002302E0D45819
:100FC800C4500433C4188C42F9D30B4A0B4C002389
:100FD80001E013600432A242FBD3FFF7E7FFFFF7FB
:100FE800B5FAFFF7BDFD70470000022000000020A1
:100FF8003C040020502C00083C0400206C06002013
:10100800FEE7000010B504460E4B18784FF47A73CB
:10101800B3FBF0F30C4A1068B0FBF3F000F0ACF847
:1010280068B90F2C01D901200AE0002221464FF0AF
:10103800FF3000F05FF8054B1C60002000E0012045
:1010480010BD00BF34040020300400203804002004
:1010580008B50B4B1A6842F400721A601A6842F419
:1010680080621A601A6842F480721A60032000F0E5
:101078002FF80F20FFF7C6FFFFF7BAFD002008BDC5
:10108800003C0240034A1168034B1B780B44136071
:10109800704700BF6806002034040020014B186820
:1010A800704700BF6806002038B50446FFF7F6FF12
:1010B8000546B4F1FF3F02D0044B1B781C44FFF7F0
:1010C800EDFF401BA042FAD338BD00BF3404002016
:1010D800074AD36823F4E0631B041B0C000200F4E6
:1010E800E060034343F0BF6343F40033D3607047C9
:1010F80000ED00E030B4174BDB68C3F30223C3F103
:101108000704042C28BF04241D1D062D18D9033BF1
:101118004FF0FF3505FA04F421EA0401994005FA75
:1011280003F322EA0303194300280BDB0901C9B2C0
:1011380000F1604000F5614080F8001330BC704752
:101148000023E5E700F00F000901C9B2024B19546A
:10115800F4E700BF00ED00E014ED00E0002807DB35
:1011680000F01F02400901239340024A42F8203050
:10117800704700BF00E100E00138B0F1807F0AD27B
:10118800064B5860064AF02182F823100020986028
:1011980007221A6070470120704700BF10E000E086
:1011A80000ED00E070B50446866DFFF777FF94F810
:1011B8003530DBB2022B06D080236365002384F828
:1011C8003430012070BD05462268136823F01603E9
:1011D80013602268536923F080035361236CE3B1E1
:1011E8002268136823F0080313602268136823F049
:1011F8000103136023681B6813F0010F11D0FFF778
:101208004DFF431B052BF5D920236365032084F884
:101218003500002384F83430D4E7A36C002BDFD1E9
:10122800E3E7E26D3F239340B360012384F8353050
:10123800002084F83400C5E790F83530DBB2022B83
:1012480003D08023436501207047052380F835309B
:101258000268136823F00103136000207047000040
:1012680000230F2B00F2CB80F0B482B05DE08668DB
:101278005F000324BC4026EA0406CC68BC40344323
:101288008460466826EA02064C68C4F300129A4055
:101298003243426057E0DC08083450F8247003F009
:1012A800070296000F22B24027EA02070A69B240F5
:1012B8003A4340F824205AE0042200E00022B240D9
:1012C8003A4302344E4E46F824204E4A1468EA4304
:1012D80024EA05064F6817F4803F01D045EA040662
:1012E800484C2660646802EA04064F6817F4003F19
:1012F80001D045EA0406434C6660A46802EA040685
:101308004F6817F4801F01D045EA04063D4CA660DB
:10131800E46822404E6816F4001F01D045EA040232
:10132800384CE26001330F2B66D801229A400C68D2
:1013380004EA020532EA0404F4D14C6804F0030418
:10134800013C012C93D94A6802F00302032A09D010
:10135800C4685E000322B24024EA02048A68B240EC
:101368002243C2604A6802F00302022A93D004684A
:101378005E000322B24024EA02044A6802F0030233
:10138800B240224302604A6812F4403FCAD00022A9
:1013980001921D4A546C44F480445464526C02F423
:1013A80080420192019A9C08A61C154A52F82670A0
:1013B80003F0030296000F22B24027EA0207134AFD
:1013C80090423FF47BAF02F5806290420ED002F566
:1013D800806290420CD002F5806290420AD002F5F9
:1013E800806290423FF468AF072268E7012266E70F
:1013F800022264E7032262E702B0F0BC704770473C
:1014080000380140003C0140003802400000024022
:101418000AB181617047090481617047002800F0B2
:10142800CC80F8B5044690F83D30002B77D02423C3
:1014380084F83D302268136823F0010313602268A2
:10144800136843F4004313602268136823F40043CD
:10145800136000F0C3FB62685A4B9A4264D85A4B37
:1014680098428CBF00230123002B40F0A880574DE1
:10147800A5FB0035AF0C2668716821F03F0141EAF1
:101488009541716021680B6A23F03F0365684D4AF6
:1014980095424FD87A1C13430B622568E96921F4F9
:1014A8004F4121F0FF016368464A93424CD8013806
:1014B8005B00B0FBF3F0013040F6FC73184278D0C3
:1014C800C0F30B030B43EB6121680B6823F0C003E7
:1014D800E269206A024313430B6021688B6823F496
:1014E800034323F0FF032269E068024313438B6040
:1014F8002168CB6823F0FF036269A06902431343A4
:10150800CB602268136843F0010313600020206455
:10151800202384F83D30206384F83E00F8BD80F82D
:101528003C30FFF781FB82E7294B98428CBF0023B0
:10153800012399E74FF4967202FB07F2254DA5FBAC
:10154800025292090132A6E7A268BAB9461E03EB15
:101558004307B6FBF7F60136C6F30B06B6FA86F66E
:10156800760946BBC2B9421E03EB4303B2FBF3F252
:101578000132C2F30B0242F40043A3E7461E03EB19
:10158800830707EB8707B6FBF7F60136C6F30B06AA
:10159800B6FA86F67609E4E7421E03EB830303EB0B
:1015A8008303B2FBF3F20132C2F30B0242F440436D
:1015B80088E7042386E7012384E701207047012098
:1015C800ACE700BFA08601007F841E0083DE1B43BA
:1015D800FF083D00D34D6210002800F0DF8170B590
:1015E80082B00446036813F0010F3BD0A64B9B68FA
:1015F80003F00C03042B2CD0A34B9B6803F00C03C3
:10160800082B21D06368B3F5803F4FD0B3F5A02FE6
:1016180052D09D4B1A6822F480321A601A6822F45C
:1016280080221A606368002B50D0FFF737FD05460B
:10163800954B1B6813F4003F14D1FFF72FFD401B97
:101648006428F5D90320B0E18F4B5B6813F4800F51
:10165800D8D08D4B1B6813F4003F03D06368002B70
:1016680000F09E81236813F0020F54D0864B9B68CC
:1016780013F00C0F3ED0844B9B6803F00C03082B2F
:1016880033D0E368002B67D0804B01221A60FFF744
:1016980005FD05467C4B1B6813F0020F53D1FFF77D
:1016A800FDFC401B0228F5D903207EE1764A136829
:1016B80043F480331360B5E7734B1A6842F4802211
:1016C8001A601A6842F480321A60ABE7FFF7E6FC4A
:1016D80005466D4B1B6813F4003FC3D0FFF7DEFCD3
:1016E800401B6428F5D903205FE1674B5B6813F45E
:1016F800800FC6D1644B1B6813F0020F03D0E36858
:10170800012B40F04F81604A136823F0F8032169E8
:1017180043EAC1031360236813F0080F40D06369DC
:1017280063B35B4B01221A60FFF7B8FC0546564BC2
:101738005B6F13F0020F33D1FFF7B0FC401B022898
:10174800F5D9032031E1504A136823F0F8032169E1
:1017580043EAC1031360DEE74C4B00221A60FFF72F
:101768009DFC0546484B1B6813F0020FD3D0FFF7CA
:1017780095FC401B0228F5D9032016E1444B0022B2
:101788001A60FFF78BFC05463F4B5B6F13F0020FA7
:1017980006D0FFF783FC401B0228F5D9032004E19B
:1017A800236813F0040F78D0374B1B6C13F0805F5D
:1017B8000DD100230193344B1A6C42F080521A6405
:1017C8001B6C03F080530193019B012500E0002569
:1017D800304B1B6813F4807F21D0A368012B32D0D3
:1017E800052B36D0284B1A6F22F001021A671A6FA0
:1017F80022F004021A67A368002B34D0FFF74EFCCE
:101808000646214B1B6F13F0020F45D1FFF746FC2C
:10181800801B41F288339842F3D90320C5E01D4A62
:10182800136843F480731360FFF738FC0646194BBE
:101838001B6813F4807FD0D1FFF730FC801B02288F
:10184800F5D90320B1E0104A136F43F00103136781
:10185800D1E70D4B1A6F42F004021A671A6F42F073
:1018680001021A67C7E7FFF719FC0646064B1B6F0C
:1018780013F0020F10D0FFF711FC801B41F28833E0
:101888009842F3D9032090E0003802400000474214
:10189800800E474200700040EDB9A369002B00F0AC
:1018A8008380494A926802F00C02082A51D0022B20
:1018B80017D0464B00221A60FFF7F0FB0446424B54
:1018C8001B6813F0007F42D0FFF7E8FB001B0228DB
:1018D800F5D9032069E03C4A136C23F08053136464
:1018E800DBE73A4B00221A60FFF7D8FB0546364B78
:1018F8001B6813F0007F06D0FFF7D0FB401B0228BF
:10190800F5D9032051E0E369226A1343626A43EA86
:101918008213A26A5208013A43EA0243E26A43EA9E
:101928000263294A5360294B01221A60FFF7B6FB6C
:101938000446254B1B6813F0007F06D1FFF7AEFB6A
:10194800001B0228F5D903202FE000202DE00020FD
:101958002BE0012B2BD01C4B5B6803F48001E26960
:10196800914226D103F03F02216A8A4223D1616A5B
:1019780047F6C0721A40B2EB811F1ED103F4403102
:10198800A26A5208013AB1EB024F18D103F0706312
:10199800E26AB3EB026F14D1002006E00120704721
:1019A800012002E0012000E0002002B070BD01200B
:1019B800FBE70120F9E70120F7E70120F5E701201F
:1019C800F3E70120F1E700BF00380240600047421A
:1019D800F8B5244B9B6803F00C03042B3DD0082B6F
:1019E8003DD1204B5A6802F03F025B6813F4800F28
:1019F80012D01C4B5968C1F3881100231A48A1FB67
:101A08000001FEF709FC174B5B68C3F30143013380
:101A18005B00B0FBF3F023E0124B5B68C3F3881361
:101A28005C010025E41A65F10005AE0146EA9466FA
:101A3800A701381B66EB0501CC0044EA5074C500C9
:101A4800E81844F100018B0243EA905384022046CF
:101A580019460023FEF7E0FBD5E7034800E00348FA
:101A6800F8BD00BF0038024040787D010024F40032
:101A7800002800F09B8070B50D4604464F4B1B684C
:101A880003F007038B4208D2CBB24C4A1370136899
:101A980003F007038B4240F08B80236813F0020F9A
:101AA80017D013F0040F04D0454A936843F4E05369
:101AB8009360236813F0080F04D0414A936843F4F5
:101AC800604393603E4A936823F0F003A1680B4398
:101AD8009360236813F0010F32D06368012B21D083
:101AE8009A1E012A25D9364A126812F0020F61D0CF
:101AF80033498A6822F0030213438B60FFF7CEFA5A
:101B080006462F4B9B6803F00C036268B3EB820F09
:101B180016D0FFF7C3FA801B41F288339842F0D9F8
:101B2800032042E0264A126812F4003FE0D1012067
:101B38003BE0234A126812F0007FD9D1012034E03B
:101B48001E4B1B6803F00703AB4207D9EAB21B4BD5
:101B58001A701B6803F00703AB422DD1236813F0FA
:101B6800040F06D0164A936823F4E053E1680B4348
:101B78009360236813F0080F07D0114A936823F481
:101B88006043216943EAC1039360FFF721FF0C4BCF
:101B98009B68C3F303130B4AD35CD8400A4B186005
:101BA8000A4B1868FFF72EFA002070BD0120704715
:101BB8000120FAE70120F8E70120F6E7003C02409F
:101BC80000380240242C000830040020380400208B
:101BD800014B1868704700BF3004002008B5FFF7B4
:101BE800F7FF044B9B68C3F38223034AD35CD840B6
:101BF80008BD00BF00380240342C000808B5FFF7C4
:101C0800E7FF044B9B68C3F34233034AD35CD840D5
:101C180008BD00BF00380240342C000800285AD004
:101C280010B50446436A33B94368B3F5827F05D0DB
:101C38000023C36102E00023036143610023A36220
:101C480094F85130002B40D0022384F85130226898
:101C5800136823F040031360636803F48273A26877
:101C680002F404421343E26802F400621343226957
:101C780002F002021343626902F001021343A269EF
:101C880002F400721343E26902F038021343226A35
:101C980002F080021343A26A02F40052216813433F
:101CA8000B60638B03F00403626A02F01002216880
:101CB80013434B602268D36923F40063D361002087
:101CC8006065012384F8513010BD84F850302046F7
:101CD800FEF7F4FFB8E701207047000070B4036A0C
:101CE80023F001030362036A4668826922F07302E3
:101CF8000C6844EA020523F002028B6813430D4C7A
:101D0800A04209D00B4CA0420DD0466085614A68BC
:101D18004263036270BC704723F00803CA68134328
:101D280023F00403EEE726F440764A6932438E69CD
:101D38001643EAE70000014030B4036A23F48073D5
:101D48000362036A4568C26922F073020C68224381
:101D580023F400738C6843EA04230F4CA04209D093
:101D68000D4CA0420ED04560C2614A68C26303624E
:101D780030BC704723F40063CC6843EA042323F49F
:101D88008063EDE725F440554C6945EA04158C69F4
:101D980045EA0415E7E700BF0000014030B4036AD4
:101DA80023F480530362036A4468C26922F4E6425A
:101DB8000D6842EA052223F400538D6843EA05338F
:101DC800074DA84206D04460C2614A6802640362B3
:101DD80030BC704724F480444D6944EA8514F2E726
:101DE8000000014030B4036A056A25F00105056268
:101DF800846924F0F00444EA021423F00A030B4334
:101E08008461036230BC704730B4056A25F0100560
:101E180005628469036A24F4704444EA023423F0B6
:101E2800A00343EA01138461036230BC70478368EE
:101E380023F070030B4343F00703836070470000EF
:101E480090F83D30DBB2012B2FD1022380F83D30D2
:101E58000268D36843F00103D3600368154A9342CC
:101E680018D0B3F1804F15D0A2F57C42934211D01F
:101E780002F5806293420DD002F58062934209D048
:101E880002F59A32934205D01A6842F001021A60AC
:101E9800002070479A6802F00702062A07D01A68DD
:101EA80042F001021A6000207047012070470020AC
:101EB800704700BF00000140704770477047704787
:101EC800704710B5044603681A6912F0020F11D062
:101ED800DA6812F0020F0DD06FF002021A610123C6
:101EE800037703689B6913F0030F70D0FFF7E6FFD1
:101EF8000023237723681A6912F0040F12D0DA68D6
:101F080012F0040F0ED06FF004021A610223237737
:101F180023689B6913F4407F5FD02046FFF7CEFF0C
:101F28000023237723681A6912F0080F12D0DA68A1
:101F380012F0080F0ED06FF008021A6104232377FD
:101F48002368DB6913F0030F4ED02046FFF7B6FF76
:101F58000023237723681A6912F0100F12D0DA6869
:101F680012F0100F0ED06FF010021A6108232377B9
:101F78002368DB6913F4407F3DD02046FFF79EFFBE
:101F88000023237723681A6912F0010F03D0DA6857
:101F980012F0010F36D123681A6912F0800F03D0AE
:101FA800DA6812F0800F34D123681A6912F0400FF2
:101FB80003D0DA6812F0400F32D123681A6912F0A0
:101FC800200F03D0DA6812F0200F30D110BDFFF7D0
:101FD80074FF2046FFF773FF8AE72046FFF76DFF7F
:101FE8002046FFF76CFF9BE72046FFF766FF204679
:101FF800FFF765FFACE72046FFF75FFF2046FFF7D6
:102008005EFFBDE76FF001021A612046FEF7CAFBCA
:10201800C1E76FF080021A61204600F01CFAC3E79E
:102028006FF040021A612046FFF74AFFC5E76FF0DC
:1020380020021A61204600F00DFAC7E70368254A16
:1020480090420ED0B0F1804F0BD0A2F57C42904266
:1020580007D002F58062904203D002F58062904278
:1020680003D123F070034A6813431A4A90421AD0E6
:10207800B0F1804F17D0A2F57C42904213D002F500
:10208800806290420FD002F5806290420BD002F538
:102098009A32904207D002F58062904203D002F54E
:1020A8008062904203D123F44073CA68134323F03B
:1020B80080034A69134303608B68C3620B688362B9
:1020C800044B984202D00123436170470B690363B4
:1020D800F9E700BF0000014040B310B5044690F88E
:1020E8003D30F3B1022384F83D30214651F8040B0A
:1020F800FFF7A4FF012384F8463084F83E3084F8C3
:102108003F3084F8403084F8413084F8423084F815
:10211800433084F8443084F8453084F83D3000205A
:1021280010BD80F83C30FEF703FEDBE70120704766
:1021380040B310B5044690F83D30F3B1022384F85B
:102148003D30214651F8040BFFF778FF012384F84E
:10215800463084F83E3084F83F3084F8403084F8C4
:10216800413084F8423084F8433084F8443084F8AD
:10217800453084F83D30002010BD80F83C30FFF732
:102188009BFEDBE70120704730B4036A23F010039D
:102198000362036A4468826922F4E6420D6842EAEF
:1021A800052223F020038D6843EA05130E4DA8424B
:1021B80009D00D4DA8420ED0446082614A688263FE
:1021C800036230BC704723F08003CD6843EA0513EF
:1021D80023F04003EDE724F440644D6944EA8504A4
:1021E8008D6944EA8504E7E70000014038B590F8B6
:1021F8003C30012B66D004460D46012380F83C3064
:102208000C2A5AD8DFE802F0075959591B5959596D
:102218003059595944000068FFF760FD22689369F6
:1022280043F0080393612268936923F004039361E0
:102238002268936929690B43936100203EE0006896
:10224800FFF7A2FF2268936943F400639361226851
:10225800936923F48063936122689369296943EA47
:1022680001239361002029E00068FFF765FD2268DB
:10227800D36943F00803D3612268D36923F00403C8
:10228800D3612268D36929690B43D361002015E023
:102298000068FFF783FD2268D36943F40063D361C4
:1022A8002268D36923F48063D3612268D3692969DA
:1022B80043EA0123D361002000E00120002384F8D1
:1022C8003C3038BD0220FCE710B4846824F47F4415
:1022D80042EA03220A432243826010BC704790F806
:1022E8003C30012B78D010B50446012380F83C30EF
:1022F800022380F83D300268936823F47F4323F07B
:10230800770393600B68602B4CD029D8402B54D0AE
:102318000CD9502B22D1CA6849680068FFF762FDC2
:1023280050212068FFF783FD002005E0202B0DD009
:1023380009D9302B0AD00120012384F83D3000232D
:1023480084F83C3010BD0BB1102B05D1194620681C
:10235800FFF76DFD0020EFE70120EDE70120EBE737
:10236800B3F5805F34D0B3F5005F0CD1CB684A6811
:1023780089680068FFF7A8FF2268936843F48043E0
:1023880093600020D8E7702B24D1CB684A6889680D
:102398000068FFF799FF2268936843F0770393601A
:1023A8000020C9E7CA6849680068FFF72DFD602169
:1023B8002068FFF73CFD0020BEE7CA68496800684E
:1023C800FFF710FD40212068FFF731FD0020B3E73B
:1023D8000020B1E70120AFE70220704790F83C30B9
:1023E800012B33D030B4012380F83C30022380F82D
:1023F8003D3003685C689D6824F070040A682243D5
:102408005A600368124A934212D0B3F1804F0FD03A
:10241800A2F57C4293420BD002F58062934207D02A
:1024280002F58062934203D002F59A32934204D1B6
:1024380025F080054A6815439D60012380F83D30EA
:10244800002380F83C30184630BC704702207047A3
:102458000000014070477047026802F10C0353E81E
:10246800003F23F490730C3242E800310029F3D185
:10247800026802F1140353E8003F23F00103143209
:1024880042E800310029F3D1036B012B05D020234A
:1024980080F83E30002303637047026802F10C03A2
:1024A80053E8003F23F010030C3242E800310029C2
:1024B800F3D1ECE790F83D30DBB2212B01D00220BC
:1024C80070478368B3F5805F17D0036A5A1C0262AD
:1024D8001A7803685A60C38C9BB2013B9BB2C384D1
:1024E8004BB90268D36823F08003D3600268D368CD
:1024F80043F04003D360002070470369002BE4D108
:10250800036A1B880268C3F308035360036A023333
:102518000362E0E770B504460268136923F4405388
:10252800C1680B431361836802691343426913430B
:10253800C2691A430168CB6823F4164323F00C03DD
:102548001343CB600268536923F4407381690B43DA
:1025580053610368344A934206D002F5806293427D
:1025680002D0FFF73BFB01E0FFF748FBE369B3F557
:10257800004F2AD00026051846EB06012D1846EB19
:102588000101CB0043EA5573EA0015461946636812
:102598009A009B0F281846EB0101FDF73DFE234DDD
:1025A800A5FB00325109642303FB11031B013233DD
:1025B800A5FB03235B0903F0F00202EB011203F011
:1025C8000F03216813448B6070BD0026051846EB85
:1025D80006012D1846EB0101CB0043EA5573EA00CA
:1025E8001546194662683346921846EB03032818C5
:1025F80046EB0101FDF710FE0C4DA5FB0032510919
:10260800642303FB1103DB003233A5FB03235B09BF
:102618005A0002F4F87202EB011203F00703216872
:1026280013448B60D0E700BF001001401F85EB51B9
:102638002DE9F84305460F4616469946DDF82080F1
:102648002C68246837EA04030CBF01240024B44230
:102658002DD1B8F1FF3FF3D0B8F1000F05D0FEF748
:102668001DFDA0EB09004045EAD92A6802F10C03D8
:1026780053E8003F23F4D0730C3242E800310029BC
:10268800F3D12A6802F1140353E8003F23F0010351
:10269800143242E800310029F3D1202385F83D3077
:1026A80085F83E30002385F83C30032000E0002008
:1026B800BDE8F88358B310B5044690F83D300BB325
:1026C800242384F83D302268D36823F40053D36070
:1026D8002046FFF71FFF2268136923F49043136114
:1026E8002268536923F02A0353612268D36843F4AC
:1026F8000053D36000202064202384F83D3084F800
:102708003E3010BD80F83C30FEF7C0FBD8E7012012
:1027180070472DE9F04182B01E4690F83D30DBB29B
:10272800202B54D104460D469046002953D0002A48
:1027380053D090F83C30012B51D0012380F83C3025
:1027480000230364212380F83D30FEF7A7FC0746E9
:10275800A4F82480A4F82680A368B3F5805F05D088
:102768004FF00008002384F83C3012E0236913B1CD
:102778004FF00008F6E7A8460025F3E738F8023BD3
:102788002268C3F308035360E28C92B2013A92B212
:10279800E284E38C9BB273B100963B460022802111
:1027A8002046FFF745FFE0B9002DE7D015F8012BCB
:1027B80023685A60E8E700963B46002240212046FD
:1027C800FFF736FF78B9202384F83D3000E0022077
:1027D80002B0BDE8F0810120FAE70120F8E7022005
:1027E800F6E70320F4E70320F2E7704708B501682D
:1027F800CA6822F04002CA60202280F83D20FFF714
:10280800F4FF002008BD704708B5806B0023C3851E
:10281800C384FFF7F8FF08BD704790F83E30DBB27D
:10282800222B67D18368B3F5805F4DD0826AB3F5F8
:10283800805F04D0002B54D10369002B51D1036869
:102848005B681370836A01338362C38D9BB2013B5B
:102858009BB2C385002B4FD100B583B00268D36803
:1028680023F02003D3600268D36823F48073D36015
:102878000268536923F001035361202380F83E3036
:10288800036B012B33D100230363026802F10C03AD
:1028980053E8003F23F010030C3242E800310029CE
:1028A800F3D103681A6812F0100F06D000220192C3
:1028B8001A6801925B680193019B818DFFF7ACFF59
:1028C800002003B05DF804FB0269002AAED1826AD9
:1028D80003685B68C3F308031380836A0233836267
:1028E800B3E703685B6803F07F031370AAE7FDF79B
:1028F8005BFFE5E7022070470020704730B583B0E2
:10290800044602681368D068516913F00F0505D1B1
:1029180013F0200F02D010F0200F19D12DB111F0B3
:10292800010119D110F4907F16D1216B01297DD0B6
:1029380013F0800F03D010F0800F40F0158113F0D2
:10294800400F03D010F0400F40F0128103B030BDAB
:102958002046FFF762FFF9E713F0010F06D010F4E5
:10296800807F03D0226C42F00102226413F0040F2E
:1029780004D019B1226C42F00202226413F0020F53
:1029880004D019B1226C42F00402226413F0080F3B
:1029980007D010F0200F00D119B1226C42F00802C4
:1029A8002264226C002AD1D013F0200F02D010F03C
:1029B800200F29D123685B6903F04003226C12F0D1
:1029C800080F00D163B32046FFF746FD23685B6913
:1029D80013F0400F20D0226802F1140353E8003F9F
:1029E80023F04003143242E800310029F3D1A36BED
:1029F80073B1614A1A65A06BFEF71EFC0028A5D0CA
:102A0800A06B036D9847A1E72046FFF706FFD1E7C3
:102A18002046FFF7F8FE99E72046FFF7F4FE95E712
:102A28002046FFF7F0FE002323648FE713F0100F12
:102A38003FF47EAF10F0100F3FF47AAF00230193FC
:102A48001368019353680193019B536913F0400F76
:102A580050D0A26B13685B689BB2002B3FF476AF33
:102A6800A18D99427FF672AFE385D369B3F5807F74
:102A780037D0226802F10C0353E8003F23F4807337
:102A88000C3242E800310029F3D1226802F1140324
:102A980053E8003F23F00103143242E800310029D3
:102AA800F3D1226802F1140353E8003F23F04003F6
:102AB800143242E800310029F3D1202384F83E3053
:102AC80000232363226802F10C0353E8003F23F03C
:102AD80010030C3242E800310029F3D1A06BFEF755
:102AE80061FBA18DE38D9BB2C91A89B22046FFF71D
:102AF80093FE2BE7A18DE38D9BB2C91A89B2E38DB2
:102B08009BB2002B3FF422AF00293FF41FAF22688D
:102B180002F10C0353E8003F23F490730C3242E8AF
:102B280000300028F3D1226802F1140353E8003F73
:102B380023F00103143242E800300028F3D12023A7
:102B480084F83E3000232363226802F10C0353E823
:102B5800003F23F010030C3242E800300028F3D184
:102B68002046FFF759FEF1E62046FFF7A3FCEDE605
:102B78002046FFF73BFEE9E611280008034681627C
:102B88008285C28500201864222283F83E2083F8BB
:102B98003C001968CA6842F48072CA6019684A69B8
:102BA80042F001024A611A68D36843F02003D360F7
:102BB800704708B590F83E30DBB2202B0DD171B1CB
:102BC8007AB190F83C30012B0DD0012380F83C30CD
:102BD80000230363FFF7D2FF00E0022008BD0120B5
:102BE800FCE70120FAE70220F8E70000024B13B1E6
:102BF8000248FDF78BBC7047000000002105000863
:102C0800F8B500BFF8BC08BC9E467047F8B500BFD1
:082C1800F8BC08BC9E467047A1
:102C20000800002000000000000000000102030472
:0C2C300006070809000000000102030470
:082C3C0014D6FF7F0100000027
:082C4400F52B00080102000855
:042C4C00D9010008A2
:102C5000080000200000000000000000F402002036
:102C60005C030020C40300200000000000000000FE
:102C70000000000000000000000000000000000054
:102C80000000000000000000000000000000000044
:102C90000000000000000000000000000000000034
:102CA0000000000000000000000000000000000024
:102CB0000000000000000000000000000000000014
:102CC0000000000000000000000000000000000004
:102CD00000000000000000000000000000000000F4
:102CE00000000000000000000000000000000000E4
:102CF00000000000000000000000000000000000D4
:102D000001000000000000000E33CDAB34126DE670
:102D1000ECDE05000B0000000000000000000000D9
:102D200000000000000000000000000000000000A3
:102D30000000000000000000000000000000000093
:102D40000000000000000000000000000000000083
:102D50000000000000000000000000000000000073
:0C3080000024F40001000000100000001B
:0400000508000FB927
:00000001FF
