:020000040800F2
:1000000000000220910A0008450A0008470A00087B
:10001000490A00084B0A00084D0A000800000000C9
:100020000000000000000000000000004F0A00086F
:10003000510A000800000000530A0008550A000891
:10004000E10A0008E10A0008E10A0008E10A0008E4
:10005000E10A0008E10A0008E10A0008E10A0008D4
:10006000E10A0008E10A0008E10A0008E10A0008C4
:10007000E10A0008E10A0008E10A0008E10A0008B4
:10008000E10A0008E10A0008E10A00080000000097
:10009000000000000000000000000000E10A00086D
:1000A000E10A0008E10A0008E10A0008E10A000884
:1000B000E10A0008E10A0008E10A0008E10A000874
:1000C000E10A0008E10A0008E10A0008E10A000864
:1000D000E10A00085D0A00086D0A0008000000003F
:1000E000E10A0008E10A0008E10A00080000000037
:1000F000000000000000000000000000E10A00080D
:1001000000000000E10A0008E10A0008E10A000816
:1001100000000000000000000000000000000000DF
:10012000E10A0008E10A0008E10A0008E10A000803
:10013000E10A0008000000000000000000000000CC
:10014000000000000000000000000000E10A0008BC
:100150007D0A0008E10A0008E10A0008E10A000837
:10016000E10A0008E10A00080000000000000000A9
:10017000000000000000000000000000000000007F
:1001800000000000E10A000800000000000000007C
:08019000E10A0008E10A000881
:100198000348044B834202D0034B03B1184770470E
:1001A8003C0400203C0400200000000005480649EB
:1001B8000B1AD90F01EBA301491002D0034B03B16D
:1001C800184770473C0400203C0400200000000051
:1001D80010B5064C237843B9FFF7DAFF044B13B187
:1001E8000448AFF300800123237010BD3C040020B5
:1001F800000000006420000808B5044B1BB1044946
:100208000448AFF30080BDE80840CFE700000000D5
:10021800400400206420000853B94AB9002908BFE7
:1002280000281CBF4FF0FF314FF0FF3000F06CB9D1
:10023800ADF1080C6DE904CE00F006F8DDF804E035
:10024800DDE9022304B070472DE9F047089E0D460A
:1002580004468E46002B40F082808A42174646D9D3
:10026800B2FA82F24AB1C2F1200105FA02F320FA89
:1002780001F1974041EA030E94404FEA1748230CD6
:10028800BEFBF8FCB9B208FB1CEE43EA0E430CFBBC
:1002980001F098420AD9FB180CF1FF3580F016815D
:1002A800984240F21381ACF1020C3B441B1AA4B2F1
:1002B800B3FBF8F008FB103344EA034400FB01F1F8
:1002C800A14209D93C1900F1FF3380F00181A14214
:1002D80040F2FE8002383C44641A40EA0C40002197
:1002E8001EB1D4400023C6E90043BDE8F08702B937
:1002F800FFDEB2FA82F2002A4FD1CB1B4FEA174E2B
:100308001FFA87F80121B3FBFEFC250C0EFB1C33FA
:1003180045EA034508FB0CF3AB4207D97D190CF1FC
:10032800FF3002D2AB4200F2E7808446ED1AA3B256
:10033800B5FBFEF00EFB105543EA054408FB00F838
:10034800A04507D93C1900F1FF3302D2A04500F2BD
:10035800D7801846A4EB080440EA0C40C0E78B425B
:1003680008D9002E00F0AF800021C6E90005084634
:10037800BDE8F087B3FA83F100294BD1AB4202D331
:10038800824200F2B780841A65EB030301209E467F
:10039800002EAAD0C6E9004EA7E7C2F1200C01FA48
:1003A80002F3974020FA0CF04FEA174E21FA0CFCA2
:1003B8001843BCFBFEF1050C0EFB11CC1FFA87F8A5
:1003C80045EA0C4501FB08F3AB4204FA02F409D9EB
:1003D8007D1901F1FF3C80F08B80AB4240F28880B0
:1003E80002393D44EB1A85B2B3FBFEF00EFB103325
:1003F80045EA034500FB08F3AB4207D97D1900F134
:10040800FF3C71D2AB426FD902383D44EB1A40EA47
:10041800014178E7C1F1200C8B4022FA0CF71F4309
:1004280020FA0CF405FA01F34FEA174E25FA0CF5F9
:100438001C43230CB5FBFEF91FFA87F80EFB195570
:1004480043EA054509FB08FAAA4502FA01F200FA4F
:1004580001F308D97D1909F1FF3047D2AA4545D9DA
:10046800A9F102093D44A5EB0A05A4B2B5FBFEF0CB
:100478000EFB105544EA054400FB08F8A04507D9CF
:100488003C1900F1FF352DD2A0452BD902383C4448
:1004980040EA0940A4EB0804A0FB02894C45C64683
:1004A8004D4619D316D05EB1B3EB0E0264EB0504CA
:1004B80004FA0CFCCA404CEA0202CC40C6E900240B
:1004C8000021BDE8F087314630460EE7AC46EDE640
:1004D800184601E74345E6D2B8EB020E69EB07057B
:1004E8000138E0E72846D3E760468FE78146BAE758
:1004F800614677E708464BE7ACF1020C3D4415E747
:1005080002383C4426E700BF704700BF002301467D
:100518001A46184600F08EB838B50A4C0A4D641BC6
:10052800A4100AD004F18043013B05EB8305013C8C
:1005380055F804399847002CF9D1BDE8384001F046
:1005480093BD00BFB4200008B020000870B50D4E60
:100558000D4D761BB61006D00024013455F8043B27
:100568009847A642F9D1094E094D761B01F076FD50
:10057800B61006D00024013455F8043B9847A6422B
:10058800F9D170BDA8200008A8200008B0200008F4
:10059800A8200008F0B4860746D0541E002A3CD094
:1005A800CAB2034602E014F1FF3436D303F8012B34
:1005B8009D07F8D1032C29D9CDB245EA05250F2C82
:1005C80045EA054533D9A4F11006360903F1200799
:1005D80007EB061703F1100242E9045542E90255F8
:1005E8001032BA42F8D1721C14F00C0F03EB02124D
:1005F80004F00F0613D0331F23F00303043313440E
:1006080042F8045B9342FBD106F003042CB1C9B253
:100618001C4403F8011B9C42FBD1F0BC70473446D4
:100628001346002CF3D1F8E714460346C2E71A46EE
:100638002646E0E7F0B4184C2568D5F8484114B3CD
:1006480065681F2D24DC38B9AB1C0135656044F89A
:1006580023100020F0BC704704EB85060127C6F87C
:10066800882007FA05F2D4F88871022847EA0207B9
:10067800C4F88871C6F80831E6D1D4F88C311A4329
:10068800C4F88C21E0E705F5A674C5F84841D7E71A
:100698004FF0FF30DEE700BF7C20000830B58BB09C
:1006A8000024059406940794089409940194224B15
:1006B8001A6B42F004021A631A6B02F004020192E8
:1006C800019A02941A6B42F080021A631A6B02F0C4
:1006D80080020292029A03941A6B42F001021A6392
:1006E8001A6B02F001020392039A04941A6B42F007
:1006F80002021A631B6B03F002030493049B0F4D61
:1007080022462021284600F097FD4FF40053059318
:100718004FF404130693079405A9094800F0B4FCA4
:1007280020230593012306930794089405A92846D6
:1007380000F0AAFC0BB030BD0038024000000240B7
:100748000008024000B583B000210191094B1A6BE3
:1007580042F480021A631B6B03F480030193019B2C
:100768000A46442000F01EFA442000F04FFA03B075
:100778005DF804FB0038024038B5074D074C642388
:1007880008222946204601F0F2F908222946204687
:1007980001F03DFC38BD00BF40050020B804002032
:1007A80072B6FEE708B50A480A4B03604FF4E13316
:1007B800436000238360C36003610C22426183614C
:1007C800C36101F0A5F900B908BDFFF7E9FF00BF53
:1007D800B80400200010014008B50A480A4B03601D
:1007E8004FF4E133436000238360C36003610C224C
:1007F80042618361C36101F08BF900B908BDFFF75D
:10080800CFFF00BFFC0400200044004000B595B0B5
:100818003022002108A8FFF7BDFE002303930493AC
:1008280005930693079301931E4A116C41F080517A
:100838001164126C02F080520192019A02931A4AD2
:10084800116841F440411160126802F4404202927A
:10085800029A0222089201210B9110210C910E920A
:100868000F93082310936423119312920423139374
:1008780008A800F0E7FC88B90F2303930223049328
:10088800002305934FF4805206920793032103A88F
:1008980000F03AFF20B915B05DF804FBFFF780FFC0
:1008A800FFF77EFF003802400070004008B500F0F6
:1008B8003BF9FFF7ABFFFFF7F1FEFFF773FFFFF719
:1008C80041FFFFF789FF08220249034801F09FFB17
:1008D800FEE700BF40050020B804002000B583B043
:1008E800002100910C4B5A6C42F480425A645A6CB5
:1008F80002F480420092009A01911A6C42F08052F0
:100908001A641B6C03F080530193019B072000F0CD
:1009180037F903B05DF804FB0038024030B58BB0FE
:1009280000230593069307930893099303683D4AA8
:10093800934204D03C4A934248D00BB030BD0446A1
:1009480000250195394B5A6C42F010025A645A6CD2
:1009580002F010020192019A02951A6B42F001020C
:100968001A631B6B03F001030293029B4FF4C063ED
:1009780005930223069307950323089307230993F6
:1009880005A92B4800F080FB2A482B4B03604FF049
:10099800006343608560C5604FF48063036145610F
:1009A8008561C5610562456200F0BCF958B9214B03
:1009B800A3639C6300221146252000F0F3F825204C
:1009C80000F024F9B9E7FFF7EBFEF0E70024039401
:1009D800164B1A6C42F400321A641A6C02F4003294
:1009E8000392039A04941A6B42F001021A631B6B78
:1009F80003F001030493049B0C230593022306933D
:100A08000794032308930723099305A9084800F0CE
:100A18003BFB22462146262000F0C4F8262000F0A1
:100A2800F5F88AE700100140004400400038024011
:100A3800000002405804002088640240FEE7FEE7F8
:100A4800FEE7FEE7FEE770477047704708B500F01D
:100A580085F808BD08B5024801F07EF908BD00BF59
:100A6800B804002008B5024801F076F908BD00BFB7
:100A7800FC04002008B5024800F018FA08BD00BFC1
:100A88005804002070470000DFF834D00D480E49A4
:100A98000E4A002302E0D458C4500433C4188C42D0
:100AA800F9D30B4A0B4C002301E013600432A24235
:100AB800FBD3FFF7E7FFFFF749FDFFF7F7FE7047A6
:100AC80000000220000000203C040020B4200008A0
:100AD8003C0400204C050020FEE7000010B5044649
:100AE8000E4B18784FF47A73B3FBF0F30C4A106886
:100AF800B0FBF3F000F098F868B90F2C01D9012089
:100B08000AE0002221464FF0FF3000F04BF8054B79
:100B18001C60002000E0012010BD00BF340400204C
:100B2800300400203804002008B50B4B1A6842F442
:100B380000721A601A6842F480621A601A6842F4F5
:100B480080721A60032000F01BF80020FFF7C6FF30
:100B5800FFF7C4FE002008BD003C0240034A1168AC
:100B6800034B1B780B441360704700BF48050020F7
:100B780034040020014B1868704700BF4805002066
:100B8800074AD36823F4E0631B041B0C000200F43B
:100B9800E060034343F0BF6343F40033D36070471E
:100BA80000ED00E030B4174BDB68C3F30223C3F158
:100BB8000704042C28BF04241D1D062D18D9033B47
:100BC8004FF0FF3505FA04F421EA0401994005FACB
:100BD80003F322EA0303194300280BDB0901C9B216
:100BE80000F1604000F5614080F8001330BC7047A8
:100BF8000023E5E700F00F000901C9B2024B1954C0
:100C0800F4E700BF00ED00E014ED00E0002807DB8A
:100C180000F01F02400901239340024A42F82030A5
:100C2800704700BF00E100E00138B0F1807F0AD2D0
:100C3800064B5860064AF02182F82310002098607D
:100C480007221A6070470120704700BF10E000E0DB
:100C580000ED00E010B40368D9B210390B4AA2FBCA
:100C6800014212090A4CA25CC2655F2908D923F423
:100C78007F7323F0030304338365806D10BC7047D2
:100C880023F47F7323F003038365F6E7ABAAAAAACC
:100C980098200008836A826992B9012B0AD0022B36
:100CA80002D00BB100207047C36A13F0807F28D1AF
:100CB80000207047C36AB3F1C07F24D0002070477A
:100CC800B2F5005F09D0022B25D9032B25D1C36AC1
:100CD80013F0807F23D100207047032B03D8DFE86F
:100CE80003F01404140A00207047C36A13F0807FCD
:100CF8000DD100207047C36AB3F1C07F09D000202E
:100D0800704701207047012070470120704701207B
:100D1800704701207047012070470020704701206C
:100D28007047000070B50446FFF724FF002C5BD025
:100D38000546022384F83530002384F834302268CD
:100D4800136823F00103136023681A6812F0010F77
:100D58000AD0FFF70FFF431B052BF5D92023636546
:100D6800032084F8350070BD1A6820481040616877
:100D7800A2680A43E1680A4321690A4361690A4390
:100D8800A1690A43E1690A43216A0A430243616A85
:100D980004291ED01A602668756925F00705636A5C
:100DA8001D43042B07D1A36A1D43E36A1BB12046E8
:100DB800FFF770FF90B975612046FFF74BFFE26DB2
:100DC8003F239340836000206065012384F8353019
:100DD800C9E7E16A206B01430A43DBE74023636507
:100DE800012084F83500BEE70120BCE73F8010F001
:100DF80070B50446866DFFF7BDFE94F83530DBB25A
:100E0800022B06D080236365002384F83430012048
:100E180070BD05462268136823F016031360226824
:100E2800536923F080035361236CE3B1226813688C
:100E380023F0080313602268136823F0010313608A
:100E480023681B6813F0010F11D0FFF793FE431BB3
:100E5800052BF5D920236365032084F8350000238A
:100E680084F83430D4E7A36C002BDFD1E3E7E26DDC
:100E78003F239340B360012384F83530002084F881
:100E88003400C5E790F83530DBB2022B03D080235D
:100E9800436501207047052380F8353002681368E0
:100EA80023F001031360002070470000F0B583B001
:100EB800044600230193724B1D68724BA3FB053552
:100EC800AD0A876D3E68C26D08239340334210D047
:100ED80003681A6812F0040F0BD01A6822F0040293
:100EE8001A60C26D08239340BB60436D43F0010351
:100EF8004365E26D01239340334209D02268526969
:100F080012F0800F04D0BB60636D43F00203636589
:100F1800E26D04239340334209D02268126812F02C
:100F2800020F04D0BB60636D43F004036365E26D98
:100F380010239340334224D02268126812F0080F1D
:100F48001FD0BB6023681A6812F4802F0DD01B686D
:100F580013F4002F04D1236C9BB12046984710E06E
:100F6800A36C73B1204698470BE01A6812F4807F8F
:100F780003D11A6822F008021A60236C0BB12046CC
:100F88009847E26D20239340334255D02268126877
:100F980012F0100F50D0BB6094F83530DBB2052B3F
:100FA8000ED023681A6812F4802F33D01B6813F40C
:100FB800002F2AD1636C002B3ED0204698473BE097
:100FC8002268136823F0160313602268536923F01C
:100FD80080035361236CA3B12268136823F00803CC
:100FE8001360E26D3F239340BB60012384F83530E2
:100FF800002384F83430236D002B3FD020469847D7
:101008003CE0A36C002BE7D1EBE7E36BA3B12046F0
:10101800984711E01A6812F4807F09D11A6822F003
:1010280010021A60012384F83530002384F8343024
:10103800E36B0BB120469847636DFBB1636D13F00A
:10104800010F17D0052384F835302268136823F080
:1010580001031360019B01330193AB4204D8236859
:101068001B6813F0010FF5D1012384F835300023F4
:1010780084F83430E36C0BB12046984703B0F0BDD8
:1010880030040020B5814E1B00230F2B00F2CB80CB
:10109800F0B482B05DE086685F000324BC4026EAB5
:1010A8000406CC68BC4034438460466826EA0206DD
:1010B8004C68C4F300129A403243426057E0DC089F
:1010C800083450F8247003F0070296000F22B2404B
:1010D80027EA02070A69B2403A4340F824205AE056
:1010E800042200E00022B2403A4302344E4E46F851
:1010F80024204E4A1468EA4324EA05064F6817F488
:10110800803F01D045EA0406484C2660646802EA3C
:1011180004064F6817F4003F01D045EA0406434C23
:101128006660A46802EA04064F6817F4801F01D0BD
:1011380045EA04063D4CA660E46822404E6816F471
:10114800001F01D045EA0402384CE26001330F2B3E
:1011580066D801229A400C6804EA020532EA0404BF
:10116800F4D14C6804F00304013C012C93D94A687B
:1011780002F00302032A09D0C4685E000322B240C9
:1011880024EA02048A68B2402243C2604A6802F034
:101198000302022A93D004685E000322B24024EAC4
:1011A80002044A6802F00302B240224302604A681D
:1011B80012F4403FCAD0002201921D4A546C44F4F4
:1011C80080445464526C02F480420192019A9C0853
:1011D800A61C154A52F8267003F0030296000F2247
:1011E800B24027EA0207134A90423FF47BAF02F568
:1011F800806290420ED002F5806290420CD002F5D7
:10120800806290420AD002F5806290423FF468AF53
:10121800072268E7012266E7022264E7032262E701
:1012280002B0F0BC7047704700380140003C0140F4
:1012380000380240000002400AB181617047090489
:1012480081617047002800F0DF8170B582B00446E4
:10125800036813F0010F3BD0A64B9B6803F00C0307
:10126800042B2CD0A34B9B6803F00C03082B21D034
:101278006368B3F5803F4FD0B3F5A02F52D09D4B94
:101288001A6822F480321A601A6822F480221A60DE
:101298006368002B50D0FFF76DFC0546954B1B6823
:1012A80013F4003F14D1FFF765FC401B6428F5D9FF
:1012B8000320B0E18F4B5B6813F4800FD8D08D4BBF
:1012C8001B6813F4003F03D06368002B00F09E8175
:1012D800236813F0020F54D0864B9B6813F00C0F51
:1012E8003ED0844B9B6803F00C03082B33D0E36893
:1012F800002B67D0804B01221A60FFF73BFC0546A4
:101308007C4B1B6813F0020F53D1FFF733FC401BD3
:101318000228F5D903207EE1764A136843F4803326
:101328001360B5E7734B1A6842F480221A601A6892
:1013380042F480321A60ABE7FFF71CFC05466D4BA0
:101348001B6813F4003FC3D0FFF714FC401B64284C
:10135800F5D903205FE1674B5B6813F4800FC6D1B2
:10136800644B1B6813F0020F03D0E368012B40F0B5
:101378004F81604A136823F0F803216943EAC103E7
:101388001360236813F0080F40D0636963B35B4BA5
:1013980001221A60FFF7EEFB0546564B5B6F13F010
:1013A800020F33D1FFF7E6FB401B0228F5D90320D3
:1013B80031E1504A136823F0F803216943EAC10375
:1013C8001360DEE74C4B00221A60FFF7D3FB05469B
:1013D800484B1B6813F0020FD3D0FFF7CBFB401B21
:1013E8000228F5D9032016E1444B00221A60FFF7C2
:1013F800C1FB05463F4B5B6F13F0020F06D0FFF7AA
:10140800B9FB401B0228F5D9032004E1236813F037
:10141800040F78D0374B1B6C13F0805F0DD100237D
:101428000193344B1A6C42F080521A641B6C03F01F
:1014380080530193019B012500E00025304B1B6878
:1014480013F4807F21D0A368012B32D0052B36D02E
:10145800284B1A6F22F001021A671A6F22F0040251
:101468001A67A368002B34D0FFF784FB0646214B8C
:101478001B6F13F0020F45D1FFF77CFB801B41F275
:1014880088339842F3D90320C5E01D4A136843F412
:1014980080731360FFF76EFB0646194B1B6813F445
:1014A800807FD0D1FFF766FB801B0228F5D9032087
:1014B800B1E0104A136F43F001031367D1E70D4BF6
:1014C8001A6F42F004021A671A6F42F001021A6793
:1014D800C7E7FFF74FFB0646064B1B6F13F0020FDB
:1014E80010D0FFF747FB801B41F288339842F3D9AD
:1014F800032090E00038024000004742800E474237
:1015080000700040EDB9A369002B00F08380494AC0
:10151800926802F00C02082A51D0022B17D0464BD1
:1015280000221A60FFF726FB0446424B1B6813F0A3
:10153800007F42D0FFF71EFB001B0228F5D90320CD
:1015480069E03C4A136C23F080531364DBE73A4BA1
:1015580000221A60FFF70EFB0546364B1B6813F096
:10156800007F06D0FFF706FB401B0228F5D90320B1
:1015780051E0E369226A1343626A43EA8213A26A6A
:101588005208013A43EA0243E26A43EA0263294AFB
:101598005360294B01221A60FFF7ECFA0446254BE9
:1015A8001B6813F0007F06D1FFF7E4FA001B02283E
:1015B800F5D903202FE000202DE000202BE0012B9F
:1015C8002BD01C4B5B6803F48001E269914226D161
:1015D80003F03F02216A8A4223D1616A47F6C0724A
:1015E8001A40B2EB811F1ED103F44031A26A52089F
:1015F800013AB1EB024F18D103F07063E26AB3EB22
:10160800026F14D1002006E001207047012002E09B
:10161800012000E0002002B070BD0120FBE701209E
:10162800F9E70120F7E70120F5E70120F3E70120BA
:10163800F1E700BF0038024060004742F8B52F4B81
:101648009B6803F00C03042B53D0082B53D12B4B6E
:101658005A6802F03F025B6813F4800F28D0274BCA
:101668005B68C3F3881358010021C01A61F10001B7
:101678008E0146EA906687013C1A66EB0105E9008F
:1016880041EA5471E000C01841F100014B0243EAFD
:10169800D0534402204619460023FEF7BDFD174BE0
:1016A8005B68C3F3014301335B00B0FBF3F023E055
:1016B800124B5B68C3F388135C010025E41A65F1DB
:1016C8000005AE0146EA9466A701381B66EB0501E2
:1016D800CC0044EA5074C500E81844F100018B02BC
:1016E80043EA90538402204619460023FEF794FDEE
:1016F800D5E7034800E00348F8BD00BF00380240C2
:1017080000127A000024F400002800F09B8070B5D5
:101718000D4604464F4B1B6803F007038B4208D263
:10172800CBB24C4A1370136803F007038B4240F0A6
:101738008B80236813F0020F17D013F0040F04D026
:10174800454A936843F4E0539360236813F0080F05
:1017580004D0414A936843F4604393603E4A9368D7
:1017680023F0F003A1680B439360236813F0010F83
:1017780032D06368012B21D09A1E012A25D9364A16
:10178800126812F0020F61D033498A6822F003020E
:1017980013438B60FFF7EEF906462F4B9B6803F067
:1017A8000C036268B3EB820F16D0FFF7E3F9801BD6
:1017B80041F288339842F0D9032042E0264A126861
:1017C80012F4003FE0D101203BE0234A126812F0F6
:1017D800007FD9D1012034E01E4B1B6803F00703BA
:1017E800AB4207D9EAB21B4B1A701B6803F0070318
:1017F800AB422DD1236813F0040F06D0164A936824
:1018080023F4E053E1680B439360236813F0080F57
:1018180007D0114A936823F46043216943EAC1035E
:101828009360FFF70BFF0C4B9B68C3F303130B4A42
:10183800D35CD8400A4B18600A4B1868FFF74EF97A
:10184800002070BD012070470120FAE70120F8E769
:101858000120F6E7003C02400038024080200008E2
:101868003004002038040020014B1868704700BF7E
:101878003004002008B5FFF7F7FF044B9B68C3F35B
:101888008223034AD35CD84008BD00BF0038024019
:101898009020000808B5FFF7E7FF044B9B68C3F3E7
:1018A8004233034AD35CD84008BD00BF0038024029
:1018B80090200008026802F10C0353E8003F23F46B
:1018C80090730C3242E800310029F3D1026802F12A
:1018D800140353E8003F23F00103143242E80031B7
:1018E8000029F3D1036B012B05D0202380F83E306B
:1018F800002303637047026802F10C0353E8003FBA
:1019080023F010030C3242E800310029F3D1ECE750
:1019180090F83D30DBB2212B01D00220704783685C
:10192800B3F5805F17D0036A5A1C02621A780368FD
:101938005A60C38C9BB2013B9BB2C3844BB902680B
:10194800D36823F08003D3600268D36843F0400370
:10195800D360002070470369002BE4D1036A1B8819
:101968000268C3F308035360036A02330362E0E7C3
:1019780070B504460268136923F44053C1680B43E9
:10198800136183680269134342691343C2691A43A6
:101998000168CB6823F4164323F00C031343CB6090
:1019A8000268536923F4407381690B4353610368E8
:1019B800344A934206D002F58062934202D0FFF780
:1019C80059FF01E0FFF766FFE369B3F5004F2AD03E
:1019D8000026051846EB06012D1846EB0101CB0041
:1019E80043EA5573EA001546194663689A009B0F47
:1019F800281846EB0101FEF70FFC234DA5FB00322A
:101A08005109642303FB11031B013233A5FB032394
:101A18005B0903F0F00202EB011203F00F032168E7
:101A280013448B6070BD0026051846EB06012D187F
:101A380046EB0101CB0043EA5573EA001546194607
:101A480062683346921846EB0303281846EB0101F7
:101A5800FEF7E2FB0C4DA5FB00325109642303FBA2
:101A68001103DB003233A5FB03235B095A0002F4A0
:101A7800F87202EB011203F00703216813448B602C
:101A8800D0E700BF001001401F85EB512DE9F84356
:101A980005460F4616469946DDF820802C682468CE
:101AA80037EA04030CBF01240024B4422DD1B8F155
:101AB800FF3FF3D0B8F1000F05D0FFF75BF8A0EBBC
:101AC80009004045EAD92A6802F10C0353E8003FAF
:101AD80023F4D0730C3242E800310029F3D12A688C
:101AE80002F1140353E8003F23F00103143242E8E3
:101AF80000310029F3D1202385F83D3085F83E30A8
:101B0800002385F83C30032000E00020BDE8F8837E
:101B180058B310B5044690F83D300BB3242384F82D
:101B28003D302268D36823F40053D3602046FFF782
:101B38001FFF2268136923F49043136122685369D5
:101B480023F02A0353612268D36843F40053D36017
:101B580000202064202384F83D3084F83E3010BDF6
:101B680080F83C30FEF7DAFED8E7012070472DE90F
:101B7800F04182B01E4690F83D30DBB2202B54D1A4
:101B880004460D469046002953D0002A53D090F8B9
:101B98003C30012B51D0012380F83C3000230364F2
:101BA800212380F83D30FEF7E5FF0746A4F824809E
:101BB800A4F82680A368B3F5805F05D04FF000082D
:101BC800002384F83C3012E0236913B14FF0000879
:101BD800F6E7A8460025F3E738F8023B2268C3F386
:101BE80008035360E28C92B2013A92B2E284E38C29
:101BF8009BB273B100963B46002280212046FFF736
:101C080045FFE0B9002DE7D015F8012B23685A608D
:101C1800E8E700963B46002240212046FFF736FFC2
:101C280078B9202384F83D3000E0022002B0BDE8F6
:101C3800F0810120FAE70120F8E70220F6E7032007
:101C4800F4E70320F2E7704708B50168CA6822F094
:101C58004002CA60202280F83D20FFF7F4FF0020F0
:101C680008BD704708B5806B0023C385C384FFF7A0
:101C7800F8FF08BD704790F83E30DBB2222B67D1E1
:101C88008368B3F5805F4DD0826AB3F5805F04D076
:101C9800002B54D10369002B51D103685B68137082
:101CA800836A01338362C38D9BB2013B9BB2C385B8
:101CB800002B4FD100B583B00268D36823F020030E
:101CC800D3600268D36823F48073D36002685369D1
:101CD80023F001035361202380F83E30036B012B6E
:101CE80033D100230363026802F10C0353E8003F79
:101CF80023F010030C3242E800310029F3D10368C5
:101D08001A6812F0100F06D0002201921A68019288
:101D18005B680193019B818DFFF7ACFF002003B046
:101D28005DF804FB0269002AAED1826A03685B6829
:101D3800C3F308031380836A02338362B3E703683B
:101D48005B6803F07F031370AAE7FEF715FDE5E76C
:101D5800022070470020704730B583B004460268FF
:101D68001368D068516913F00F0505D113F0200FDF
:101D780002D010F0200F19D12DB111F0010119D1A5
:101D880010F4907F16D1216B01297DD013F0800FBC
:101D980003D010F0800F40F0158113F0400F03D0EE
:101DA80010F0400F40F0128103B030BD2046FFF71D
:101DB80062FFF9E713F0010F06D010F4807F03D01B
:101DC800226C42F00102226413F0040F04D019B10E
:101DD800226C42F00202226413F0020F04D019B1FF
:101DE800226C42F00402226413F0080F07D010F0AE
:101DF800200F00D119B1226C42F008022264226C33
:101E0800002AD1D013F0200F02D010F0200F29D1D2
:101E180023685B6903F04003226C12F0080F00D1BD
:101E280063B32046FFF746FD23685B6913F0400F54
:101E380020D0226802F1140353E8003F23F0400346
:101E4800143242E800310029F3D1A36B73B1614A1F
:101E58001A65A06BFFF716F80028A5D0A06B036DD4
:101E68009847A1E72046FFF706FFD1E72046FFF78E
:101E7800F8FE99E72046FFF7F4FE95E72046FFF7BE
:101E8800F0FE002323648FE713F0100F3FF47EAFBA
:101E980010F0100F3FF47AAF0023019313680193F9
:101EA80053680193019B536913F0400F50D0A26B04
:101EB80013685B689BB2002B3FF476AFA18D994203
:101EC8007FF672AFE385D369B3F5807F37D0226898
:101ED80002F10C0353E8003F23F480730C3242E80C
:101EE80000310029F3D1226802F1140353E8003FBE
:101EF80023F00103143242E800310029F3D12268AB
:101F080002F1140353E8003F23F04003143242E87F
:101F180000310029F3D1202384F83E3000232363C5
:101F2800226802F10C0353E8003F23F010030C323F
:101F380042E800310029F3D1A06BFEF759FFA18DCB
:101F4800E38D9BB2C91A89B22046FFF793FE2BE7AF
:101F5800A18DE38D9BB2C91A89B2E38D9BB2002B88
:101F68003FF422AF00293FF41FAF226802F10C03AF
:101F780053E8003F23F490730C3242E80030002805
:101F8800F3D1226802F1140353E8003F23F0010360
:101F9800143242E800300028F3D1202384F83E3080
:101FA80000232363226802F10C0353E8003F23F067
:101FB80010030C3242E800300028F3D12046FFF726
:101FC80059FEF1E62046FFF7A3FCEDE62046FFF7B1
:101FD8003BFEE9E66D1C0008034681628285C285E6
:101FE80000201864222283F83E2083F83C001968F8
:101FF800CA6842F48072CA6019684A6942F00102EC
:102008004A611A68D36843F02003D360704708B563
:1020180090F83E30DBB2202B0DD171B17AB190F837
:102028003C30012B0DD0012380F83C3000230363A2
:10203800FFF7D2FF00E0022008BD0120FCE70120E5
:10204800FAE70220F8E70000024B13B10248FEF756
:102058005DBA70470000000021050008F8B500BF10
:10206800F8BC08BC9E467047F8B500BFF8BC08BC71
:042078009E467047C9
:10207C000800002000000000000000000102030422
:10208C0006070809000000000102030400061016F0
:04209C000006101614
:0820A000B0E1FF7F0100000028
:0820A8005120000801020008AC
:0420B000D90100084A
:1020B400080000200000000000000000F4020020DE
:1020C4005C030020C40300200000000000000000A6
:1020D40000000000000000000000000000000000FC
:1020E40000000000000000000000000000000000EC
:1020F40000000000000000000000000000000000DC
:1021040000000000000000000000000000000000CB
:1021140000000000000000000000000000000000BB
:1021240000000000000000000000000000000000AB
:10213400000000000000000000000000000000009B
:10214400000000000000000000000000000000008B
:10215400000000000000000000000000000000007B
:1021640001000000000000000E33CDAB34126DE618
:10217400ECDE05000B000000000000000000000081
:10218400000000000000000000000000000000004B
:10219400000000000000000000000000000000003B
:1021A400000000000000000000000000000000002B
:1021B400000000000000000000000000000000001B
:0C24E4000024F4000100000010000000C3
:0400000508000A9154
:00000001FF
